:100000000C946D010C949E010C949E010C949E0125
:100010000C949E010C949E010C949E010C949E01E4
:100020000C949E010C949E010C949E010C949E01D4
:100030000C949E010C949E010C949E010C949E01C4
:100040000C949E010C949E010C949E010C949E01B4
:100050000C949E010C949E010C949E010C940A0336
:100060000C949E010C949E010C949E010C949E0194
:100070000C949E010C949E010C949E010C949E0184
:100080000C949E010C949E010C949E010C949E0174
:100090000C949E010C949E010C949E010C949E0164
:1000A0000C949E010C949E010C949E010C949E0154
:1000B0000C949E010C949E010C949E010C949E0144
:1000C0000C949E010C949E010C949E010C949E0134
:1000D0000C949E010C949E010C949E010C949E0124
:1000E0000C949E01310436043B0445044F04C804BB
:1000F00059046104690473047D0487049604A00410
:10010000C804AA04B404BE04EA04ED04DC04E00458
:10011000E6042405F104F504FB04FF0403050905C6
:100120000D051105240517051B051F050C944F042B
:100130000C94C8040C9461040C947D040C94690420
:100140000C940D050C9459040C94F1040C941705AF
:100150000C9403050C9436040C94F5040C943B04A5
:100160000C9431040C9496040C9402030C9409052D
:100170000C94B4040C941B050C94E6040C94240514
:100180000C94E0040C94DC040C941F050C94ED0416
:100190000C94A0040C9473040C94BE040C944504B9
:1001A0000C94FF040C9487040C94EA040C94AA04A5
:1001B0000C9411050C94FB0400000A0B02090C0DB1
:1001C0000E0807030401000000000000000000000A
:1001D000000000000000000000000000000000001F
:1001E00000000000121110000000000000000000DC
:1001F00000000000000000000000000000000102FC
:100200001020200808102040102040800201020128
:1002100008040201010204081020408080402010E0
:100220000804020180040201804020100804020139
:1002300008040201010204081020408001020408A1
:10024000102040800505050507050808080802027A
:1002500002020A0A08080404040401010101010160
:1002600001010303030303030303040707070C0C43
:100270000C0C0C0C0C0C020202020606060606060A
:1002800006060B0B0B0B0B0B0B0B000020002300C7
:10029000260029002C002F0032000001000003017D
:1002A0000601090100002200250028002B002E0075
:1002B0003100340002010000050108010B010000BB
:1002C0002100240027002A002D0030003300010106
:1002D0000000040107010A01020311241FBECFEF31
:1002E000D1E2DEBFCDBF00E00CBF12E0A0E0B2E083
:1002F000E4E5FDE000E00BBF02C007900D92A030E6
:10030000B107D9F722E0A0E0B2E001C01D92AA3106
:10031000B207E1F712E0CAEDD2E000E006C0229792
:100320000109FE010BBF0E947306C83DD10780E0A2
:100330000807A9F70E94F3020C94A8060C94000089
:10034000CF93DF93EC01862F6C837D835F834E8395
:1003500060E00E94250561E08E810E942505188AD3
:1003600047EE53E060E070E04C875D876E877F87E3
:10037000DF91CF9108950F931F93CF93DF9300D018
:100380001F92CDB7DEB78C01FC0110861186128654
:10039000138660E086810E945E0582E090E00E9404
:1003A0009F0361E0F80186810E945E058AE090E08B
:1003B0000E949F0360E0F80186810E945E0582E052
:1003C00090E00E949F0320EF39E442E050E061E0BA
:1003D000F80184810E94BD059B01AC01F801608792
:1003E00071878287938769E170E080E090E02983DC
:1003F0003A834B835C830E947703A4E6B0E02981B3
:100400003A814B815C810E9468062AEF36E140E028
:1004100050E00E944306CA01B9010F900F900F905F
:100420000F90DF91CF911F910F910895089560E093
:1004300088E00E94250560E089E00E94250560E0D3
:100440008AE00C942505EF92FF920F931F93CF93B0
:10045000DF931F92CDB7DEB7182F062F790161E029
:1004600049830E9425054981413031F4B701802F2D
:100470000E940B0461E00CC0423011F4B70104C0CB
:10048000411110C060E070E0802F0E940B0460E01A
:10049000812F0F90DF91CF911F910F91FF90EF90DF
:1004A0000C945E050F90DF91CF911F910F91FF90FB
:1004B000EF900895CF93DF93EC019C0141E065E05C
:1004C00084E00E9423029E0141E066E087E0DF9124
:1004D000CF910C94230220E030E040E065E084E01E
:1004E0000E94230220E030E040E066E087E00C94C8
:1004F00023029C0141E065E084E00E94230220E0A9
:1005000030E040E066E087E00C942302CF93DF9375
:10051000EC0120E030E040E065E084E00E9423024E
:100520009E0141E066E087E0DF91CF910C942302C9
:10053000CF93DF9380E092E00E94BB0166307105AB
:100540001CF40E946B02F6CF88E00E949405C82F2D
:1005500089E00E949405D82F8AE00E9494052D2FEF
:10056000220F922F990F990F920F24E6C29F900DA0
:100570001124980F9B3041F09E36B1F0911124C0A8
:10058000DF91CF910C946B0288E790E00E94860285
:1005900062E070E080E090E00E94770389E00E94D2
:1005A0009405882389F31CC088E790E00E947902B3
:1005B00062E070E080E090E00E94770389E00E94B2
:1005C0009405882389F30CC088E790E00E945A02C2
:1005D00062E070E080E090E0DF91CF910C947703CF
:1005E000DF91CF9108950E94A9030E9416020E94F4
:1005F0001702C0E0D0E00E9498022097E1F30E9429
:100600000000F9CF4BE050E06CE070E080E092E059
:100610000C94A0011F920F920FB60F9211242F93EA
:100620003F938F939F93AF93BF93809112029091CA
:100630001302A0911402B09115023091110223E02F
:10064000230F2D3720F40196A11DB11D05C026E80A
:10065000230F0296A11DB11D209311028093120257
:1006600090931302A0931402B09315028091160286
:1006700090911702A0911802B09119020196A11D44
:10068000B11D8093160290931702A0931802B093A5
:100690001902BF91AF919F918F913F912F910F9030
:1006A0000FBE0F901F9018953FB7F89480911602D7
:1006B00090911702A0911802B091190226B5A89B3B
:1006C00005C02F3F19F00196A11DB11D3FBF662740
:1006D000782F892F9A2F620F711D811D911D42E085
:1006E000660F771F881F991F4A95D1F70895CF92FB
:1006F000DF92EF92FF92CF93DF936B017C010E9418
:100700005403EB01C114D104E104F10489F00E9407
:1007100042060E9454036C1B7D0B683E734090F3AD
:1007200081E0C81AD108E108F108C851DC4FEACFCE
:10073000DF91CF91FF90EF90DF90CF9008950197D8
:1007400039F0880F991F880F991F02970197F1F7C9
:100750000895789484B5826084BD84B5816084BD39
:1007600085B5826085BD85B5816085BDEEE6F0E02A
:10077000808181608083E1E8F0E010828081826086
:100780008083808181608083E0E8F0E08081816007
:100790008083E1EBF0E0808184608083E0EBF0E037
:1007A000808181608083E1E9F0E0808182608083E4
:1007B000808181608083E0E9F0E0808181608083D6
:1007C000E1EAF0E0808182608083808181608083C3
:1007D000E0EAF0E0808181608083E1E2F1E0808105
:1007E00082608083808181608083E0E2F1E08081AB
:1007F00081608083EAE7F0E080818460808380818B
:100800008260808380818160808380818068808332
:100810001092C10008951F93CF93DF93182FEB011F
:1008200061E00E942505209711F460E004C0CF3FED
:10083000D10539F461E0812FDF91CF911F910C94A4
:100840005E05E12FF0E0E854FE4F449150E0FA01DC
:100850003197E231F10508F09BC0EE58FF4F0C9440
:10086000620684B5806884BDC7BD97C084B58062C8
:1008700084BDC8BD92C08091800080688093800054
:10088000D0938900C093880088C0809180008062E6
:1008900080938000D0938B00C0938A007EC08091AB
:1008A0008000886080938000D0938D00C0938C007E
:1008B00074C08091B00080688093B000C093B30092
:1008C0006CC08091B00080628093B000C093B4008F
:1008D00064C080919000806880939000D0939900CC
:1008E000C09398005AC080919000806280939000DD
:1008F000D0939B00C0939A0050C080919000886074
:1009000080939000D0939D00C0939C0046C080913E
:10091000A00080688093A0008091A0008F7B8093CE
:10092000A000D093A900C093A80037C08091A00078
:1009300080628093A000D093AB00C093AA002DC02A
:100940008091A00088608093A000D093AD00C093F8
:10095000AC0023C080912001806880932001D09357
:100960002901C093280119C08091200180628093E1
:100970002001D0932B01C0932A010FC08091200148
:10098000886080932001D0932D01C0932C0105C075
:10099000C038D1050CF04ECF48CFDF91CF911F91D9
:1009A000089590E0FC013197E231F10508F04CC068
:1009B000EC57FF4F0C946206809180008F7703C044
:1009C000809180008F7D80938000089580918000C9
:1009D000877FF9CF84B58F7702C084B58F7D84BDC2
:1009E00008958091B0008F7703C08091B0008F7D13
:1009F0008093B0000895809190008F7707C0809118
:100A000090008F7D03C080919000877F809390003D
:100A100008958091A0008F7707C08091A0008F7DFE
:100A200003C08091A000877F8093A00008958091EB
:100A300020018F7707C0809120018F7D03C08091B6
:100A40002001877F809320010895CF93DF9390E06A
:100A5000FC01E250FE4F2491FC01EC5BFD4F8491C0
:100A6000882349F190E0880F991FFC01E254FD4F63
:100A7000A591B4918C559D4FFC01C591D4919FB720
:100A8000611108C0F8948C91209582238C93888101
:100A900082230AC0623051F4F8948C91322F309541
:100AA00083238C938881822B888304C0F8948C9153
:100AB000822B8C939FBFDF91CF9108950F931F934B
:100AC000CF93DF931F92CDB7DEB7282F30E0F90127
:100AD000E854FE4F8491F901E250FE4F1491F90160
:100AE000EC5BFD4F04910023C9F0882321F069835A
:100AF0000E94D1046981E02FF0E0EE0FFF1FEC555A
:100B0000FD4FA591B4919FB7F8948C91611103C0EA
:100B10001095812301C0812B8C939FBF0F90DF9193
:100B2000CF911F910F910895CF93DF93282F30E03D
:100B3000F901E854FE4F8491F901E250FE4FD4913F
:100B4000F901EC5BFD4FC491CC2391F081110E941F
:100B5000D104EC2FF0E0EE0FFF1FE657FD4FA591FB
:100B6000B4912C912D2381E090E021F480E002C02B
:100B700080E090E0DF91CF910895CF92DF92EF92E5
:100B8000FF920F931F93CF93DF9390E0FC01E2500D
:100B9000FE4FD491FC01EC5BFD4F7491611102C0DA
:100BA000C0E001C0CD2FDA01C901BF70672F70E02E
:100BB000660F771F66577D4F00E010E09801FB013C
:100BC000E590F490F70140814D234C131EC068015D
:100BD00079014FEFC41AD40AE40AF40A0817190776
:100BE0002A073B0709F442C097018601E8CF680154
:100BF0007901FFEFCF1ADF0AEF0AFF0A081719077A
:100C00002A073B0799F197018601FB01E590F490D3
:100C1000F70140814D234C13EACF801B910BA20BAF
:100C2000B30B20E030E0A901FB01E590F490F7015F
:100C3000F080FD22FC120AC0281739074A075B071B
:100C4000A9F02F5F3F4F4F4F5F4FEECFA8E1B0E0CD
:100C50000E946806605F7F4F8F4F9F4F24E09695FC
:100C60008795779567952A95D1F703C060E070E086
:100C7000CB01DF91CF911F910F91FF90EF90DF900B
:100C8000CF9008950895052E97FB1EF400940E94BE
:100C90005A0657FD07D00E94770607FC03D04EF492
:100CA0000C945A0650954095309521953F4F4F4FE3
:100CB0005F4F089590958095709561957F4F8F4F08
:100CC0009F4F0895EE0FFF1F0590F491E02D1994AA
:100CD0000E949906A59F900DB49F900DA49F800D32
:100CE000911D112408950790F691E02D1994A1E229
:100CF0001A2EAA1BBB1BFD010DC0AA1FBB1FEE1F96
:100D0000FF1FA217B307E407F50720F0A21BB30BE0
:100D1000E40BF50B661F771F881F991F1A9469F75C
:100D200060957095809590959B01AC01BD01CF01B8
:100D30000895A29FB001B39FC001A39F700D811DB4
:100D40001124911DB29F700D811D1124911D0895D4
:040D5000F894FFCF45
:00000001FF
